{
  "contractName": "LavaWallet",
  "abi": [
    {
      "inputs": [],
      "payable": false,
      "stateMutability": "nonpayable",
      "type": "constructor"
    },
    {
      "anonymous": false,
      "inputs": [
        {
          "indexed": true,
          "internalType": "address",
          "name": "tokenOwner",
          "type": "address"
        },
        {
          "indexed": true,
          "internalType": "address",
          "name": "spender",
          "type": "address"
        },
        {
          "indexed": false,
          "internalType": "address",
          "name": "token",
          "type": "address"
        },
        {
          "indexed": false,
          "internalType": "uint256",
          "name": "tokens",
          "type": "uint256"
        }
      ],
      "name": "Approval",
      "type": "event"
    },
    {
      "anonymous": false,
      "inputs": [
        {
          "indexed": false,
          "internalType": "address",
          "name": "token",
          "type": "address"
        },
        {
          "indexed": false,
          "internalType": "address",
          "name": "user",
          "type": "address"
        },
        {
          "indexed": false,
          "internalType": "uint256",
          "name": "amount",
          "type": "uint256"
        },
        {
          "indexed": false,
          "internalType": "uint256",
          "name": "balance",
          "type": "uint256"
        }
      ],
      "name": "Deposit",
      "type": "event"
    },
    {
      "anonymous": false,
      "inputs": [
        {
          "indexed": true,
          "internalType": "address",
          "name": "from",
          "type": "address"
        },
        {
          "indexed": true,
          "internalType": "address",
          "name": "to",
          "type": "address"
        },
        {
          "indexed": false,
          "internalType": "address",
          "name": "token",
          "type": "address"
        },
        {
          "indexed": false,
          "internalType": "uint256",
          "name": "tokens",
          "type": "uint256"
        }
      ],
      "name": "Transfer",
      "type": "event"
    },
    {
      "anonymous": false,
      "inputs": [
        {
          "indexed": false,
          "internalType": "address",
          "name": "token",
          "type": "address"
        },
        {
          "indexed": false,
          "internalType": "address",
          "name": "user",
          "type": "address"
        },
        {
          "indexed": false,
          "internalType": "uint256",
          "name": "amount",
          "type": "uint256"
        },
        {
          "indexed": false,
          "internalType": "uint256",
          "name": "balance",
          "type": "uint256"
        }
      ],
      "name": "Withdraw",
      "type": "event"
    },
    {
      "payable": true,
      "stateMutability": "payable",
      "type": "fallback"
    },
    {
      "constant": true,
      "inputs": [],
      "name": "getLavaDomainTypehash",
      "outputs": [
        {
          "internalType": "bytes32",
          "name": "",
          "type": "bytes32"
        }
      ],
      "payable": false,
      "stateMutability": "pure",
      "type": "function"
    },
    {
      "constant": true,
      "inputs": [
        {
          "internalType": "string",
          "name": "contractName",
          "type": "string"
        },
        {
          "internalType": "string",
          "name": "version",
          "type": "string"
        },
        {
          "internalType": "uint256",
          "name": "chainId",
          "type": "uint256"
        },
        {
          "internalType": "address",
          "name": "verifyingContract",
          "type": "address"
        }
      ],
      "name": "getEIP712DomainHash",
      "outputs": [
        {
          "internalType": "bytes32",
          "name": "",
          "type": "bytes32"
        }
      ],
      "payable": false,
      "stateMutability": "pure",
      "type": "function"
    },
    {
      "constant": true,
      "inputs": [],
      "name": "getLavaPacketTypehash",
      "outputs": [
        {
          "internalType": "bytes32",
          "name": "",
          "type": "bytes32"
        }
      ],
      "payable": false,
      "stateMutability": "pure",
      "type": "function"
    },
    {
      "constant": true,
      "inputs": [
        {
          "internalType": "string",
          "name": "methodName",
          "type": "string"
        },
        {
          "internalType": "address",
          "name": "relayAuthority",
          "type": "address"
        },
        {
          "internalType": "address",
          "name": "from",
          "type": "address"
        },
        {
          "internalType": "address",
          "name": "to",
          "type": "address"
        },
        {
          "internalType": "address",
          "name": "wallet",
          "type": "address"
        },
        {
          "internalType": "address",
          "name": "token",
          "type": "address"
        },
        {
          "internalType": "uint256",
          "name": "tokens",
          "type": "uint256"
        },
        {
          "internalType": "uint256",
          "name": "relayerRewardTokens",
          "type": "uint256"
        },
        {
          "internalType": "uint256",
          "name": "expires",
          "type": "uint256"
        },
        {
          "internalType": "uint256",
          "name": "nonce",
          "type": "uint256"
        }
      ],
      "name": "getLavaPacketHash",
      "outputs": [
        {
          "internalType": "bytes32",
          "name": "",
          "type": "bytes32"
        }
      ],
      "payable": false,
      "stateMutability": "pure",
      "type": "function"
    },
    {
      "constant": true,
      "inputs": [
        {
          "internalType": "string",
          "name": "methodName",
          "type": "string"
        },
        {
          "internalType": "address",
          "name": "relayAuthority",
          "type": "address"
        },
        {
          "internalType": "address",
          "name": "from",
          "type": "address"
        },
        {
          "internalType": "address",
          "name": "to",
          "type": "address"
        },
        {
          "internalType": "address",
          "name": "wallet",
          "type": "address"
        },
        {
          "internalType": "address",
          "name": "token",
          "type": "address"
        },
        {
          "internalType": "uint256",
          "name": "tokens",
          "type": "uint256"
        },
        {
          "internalType": "uint256",
          "name": "relayerRewardTokens",
          "type": "uint256"
        },
        {
          "internalType": "uint256",
          "name": "expires",
          "type": "uint256"
        },
        {
          "internalType": "uint256",
          "name": "nonce",
          "type": "uint256"
        }
      ],
      "name": "getLavaTypedDataHash",
      "outputs": [
        {
          "internalType": "bytes32",
          "name": "",
          "type": "bytes32"
        }
      ],
      "payable": false,
      "stateMutability": "view",
      "type": "function"
    },
    {
      "constant": false,
      "inputs": [
        {
          "internalType": "address",
          "name": "to",
          "type": "address"
        },
        {
          "internalType": "address",
          "name": "token",
          "type": "address"
        },
        {
          "internalType": "uint256",
          "name": "tokens",
          "type": "uint256"
        }
      ],
      "name": "transferTokens",
      "outputs": [
        {
          "internalType": "bool",
          "name": "success",
          "type": "bool"
        }
      ],
      "payable": false,
      "stateMutability": "nonpayable",
      "type": "function"
    },
    {
      "constant": false,
      "inputs": [
        {
          "internalType": "address",
          "name": "from",
          "type": "address"
        },
        {
          "internalType": "address",
          "name": "to",
          "type": "address"
        },
        {
          "internalType": "address",
          "name": "token",
          "type": "address"
        },
        {
          "internalType": "uint256",
          "name": "tokens",
          "type": "uint256"
        }
      ],
      "name": "transferTokensFrom",
      "outputs": [
        {
          "internalType": "bool",
          "name": "success",
          "type": "bool"
        }
      ],
      "payable": false,
      "stateMutability": "nonpayable",
      "type": "function"
    },
    {
      "constant": false,
      "inputs": [
        {
          "internalType": "string",
          "name": "methodName",
          "type": "string"
        },
        {
          "internalType": "address",
          "name": "relayAuthority",
          "type": "address"
        },
        {
          "internalType": "address",
          "name": "from",
          "type": "address"
        },
        {
          "internalType": "address",
          "name": "to",
          "type": "address"
        },
        {
          "internalType": "address",
          "name": "wallet",
          "type": "address"
        },
        {
          "internalType": "address",
          "name": "token",
          "type": "address"
        },
        {
          "internalType": "uint256",
          "name": "tokens",
          "type": "uint256"
        },
        {
          "internalType": "uint256",
          "name": "relayerRewardTokens",
          "type": "uint256"
        },
        {
          "internalType": "uint256",
          "name": "expires",
          "type": "uint256"
        },
        {
          "internalType": "uint256",
          "name": "nonce",
          "type": "uint256"
        },
        {
          "internalType": "bytes",
          "name": "signature",
          "type": "bytes"
        }
      ],
      "name": "approveAndCallWithSignature",
      "outputs": [
        {
          "internalType": "bool",
          "name": "success",
          "type": "bool"
        }
      ],
      "payable": false,
      "stateMutability": "nonpayable",
      "type": "function"
    },
    {
      "constant": false,
      "inputs": [
        {
          "internalType": "string",
          "name": "methodName",
          "type": "string"
        },
        {
          "internalType": "address",
          "name": "relayAuthority",
          "type": "address"
        },
        {
          "internalType": "address",
          "name": "from",
          "type": "address"
        },
        {
          "internalType": "address",
          "name": "to",
          "type": "address"
        },
        {
          "internalType": "address",
          "name": "wallet",
          "type": "address"
        },
        {
          "internalType": "address",
          "name": "token",
          "type": "address"
        },
        {
          "internalType": "uint256",
          "name": "tokens",
          "type": "uint256"
        },
        {
          "internalType": "uint256",
          "name": "relayerRewardTokens",
          "type": "uint256"
        },
        {
          "internalType": "uint256",
          "name": "expires",
          "type": "uint256"
        },
        {
          "internalType": "uint256",
          "name": "nonce",
          "type": "uint256"
        },
        {
          "internalType": "bytes",
          "name": "signature",
          "type": "bytes"
        }
      ],
      "name": "transferTokensWithSignature",
      "outputs": [
        {
          "internalType": "bool",
          "name": "success",
          "type": "bool"
        }
      ],
      "payable": false,
      "stateMutability": "nonpayable",
      "type": "function"
    },
    {
      "constant": false,
      "inputs": [
        {
          "internalType": "string",
          "name": "methodName",
          "type": "string"
        },
        {
          "internalType": "address",
          "name": "relayAuthority",
          "type": "address"
        },
        {
          "internalType": "address",
          "name": "from",
          "type": "address"
        },
        {
          "internalType": "address",
          "name": "to",
          "type": "address"
        },
        {
          "internalType": "address",
          "name": "wallet",
          "type": "address"
        },
        {
          "internalType": "address",
          "name": "token",
          "type": "address"
        },
        {
          "internalType": "uint256",
          "name": "tokens",
          "type": "uint256"
        },
        {
          "internalType": "uint256",
          "name": "relayerRewardTokens",
          "type": "uint256"
        },
        {
          "internalType": "uint256",
          "name": "expires",
          "type": "uint256"
        },
        {
          "internalType": "uint256",
          "name": "nonce",
          "type": "uint256"
        },
        {
          "internalType": "bytes",
          "name": "signature",
          "type": "bytes"
        }
      ],
      "name": "burnSignature",
      "outputs": [
        {
          "internalType": "bool",
          "name": "success",
          "type": "bool"
        }
      ],
      "payable": false,
      "stateMutability": "nonpayable",
      "type": "function"
    },
    {
      "constant": true,
      "inputs": [
        {
          "internalType": "bytes32",
          "name": "digest",
          "type": "bytes32"
        }
      ],
      "name": "signatureBurnStatus",
      "outputs": [
        {
          "internalType": "uint256",
          "name": "",
          "type": "uint256"
        }
      ],
      "payable": false,
      "stateMutability": "view",
      "type": "function"
    }
  ],
  "bytecode": "0x608060405234801561001057600080fd5b50611c03806100206000396000f3fe60806040526004361061009c5760003560e01c80638d11fa54116100645780638d11fa54146107c8578063a4e59a89146107f3578063a64b6e5f14610998578063b5e0e1ac14610a2b578063c375ba8a14610c6b578063d327c1eb14610c965761009c565b8063021b0699146100a157806309417110146102e157806323b6cc4f146103305780634b17bdd81461057057806359921b7b14610623575b600080fd5b3480156100ad57600080fd5b506102c760048036036101608110156100c557600080fd5b81019080803590602001906401000000008111156100e257600080fd5b8201836020820111156100f457600080fd5b8035906020019184600183028401116401000000008311171561011657600080fd5b91908080601f016020809104026020016040519081016040528093929190818152602001838380828437600081840152601f19601f820116905080830192505050505050509192919290803573ffffffffffffffffffffffffffffffffffffffff169060200190929190803573ffffffffffffffffffffffffffffffffffffffff169060200190929190803573ffffffffffffffffffffffffffffffffffffffff169060200190929190803573ffffffffffffffffffffffffffffffffffffffff169060200190929190803573ffffffffffffffffffffffffffffffffffffffff169060200190929190803590602001909291908035906020019092919080359060200190929190803590602001909291908035906020019064010000000081111561024157600080fd5b82018360208201111561025357600080fd5b8035906020019184600183028401116401000000008311171561027557600080fd5b91908080601f016020809104026020016040519081016040528093929190818152602001838380828437600081840152601f19601f820116905080830192505050505050509192919290505050610e33565b604051808215151515815260200191505060405180910390f35b3480156102ed57600080fd5b5061031a6004803603602081101561030457600080fd5b8101908080359060200190929190505050610f1a565b6040518082815260200191505060405180910390f35b34801561033c57600080fd5b50610556600480360361016081101561035457600080fd5b810190808035906020019064010000000081111561037157600080fd5b82018360208201111561038357600080fd5b803590602001918460018302840111640100000000831117156103a557600080fd5b91908080601f016020809104026020016040519081016040528093929190818152602001838380828437600081840152601f19601f820116905080830192505050505050509192919290803573ffffffffffffffffffffffffffffffffffffffff169060200190929190803573ffffffffffffffffffffffffffffffffffffffff169060200190929190803573ffffffffffffffffffffffffffffffffffffffff169060200190929190803573ffffffffffffffffffffffffffffffffffffffff169060200190929190803573ffffffffffffffffffffffffffffffffffffffff16906020019092919080359060200190929190803590602001909291908035906020019092919080359060200190929190803590602001906401000000008111156104d057600080fd5b8201836020820111156104e257600080fd5b8035906020019184600183028401116401000000008311171561050457600080fd5b91908080601f016020809104026020016040519081016040528093929190818152602001838380828437600081840152601f19601f820116905080830192505050505050509192919290505050610f36565b604051808215151515815260200191505060405180910390f35b34801561057c57600080fd5b506106096004803603608081101561059357600080fd5b81019080803573ffffffffffffffffffffffffffffffffffffffff169060200190929190803573ffffffffffffffffffffffffffffffffffffffff169060200190929190803573ffffffffffffffffffffffffffffffffffffffff16906020019092919080359060200190929190505050610fc6565b604051808215151515815260200191505060405180910390f35b34801561062f57600080fd5b506107b2600480360361014081101561064757600080fd5b810190808035906020019064010000000081111561066457600080fd5b82018360208201111561067657600080fd5b8035906020019184600183028401116401000000008311171561069857600080fd5b91908080601f016020809104026020016040519081016040528093929190818152602001838380828437600081840152601f19601f820116905080830192505050505050509192919290803573ffffffffffffffffffffffffffffffffffffffff169060200190929190803573ffffffffffffffffffffffffffffffffffffffff169060200190929190803573ffffffffffffffffffffffffffffffffffffffff169060200190929190803573ffffffffffffffffffffffffffffffffffffffff169060200190929190803573ffffffffffffffffffffffffffffffffffffffff169060200190929190803590602001909291908035906020019092919080359060200190929190803590602001909291905050506110c8565b6040518082815260200191505060405180910390f35b3480156107d457600080fd5b506107dd61124c565b6040518082815260200191505060405180910390f35b3480156107ff57600080fd5b50610982600480360361014081101561081757600080fd5b810190808035906020019064010000000081111561083457600080fd5b82018360208201111561084657600080fd5b8035906020019184600183028401116401000000008311171561086857600080fd5b91908080601f016020809104026020016040519081016040528093929190818152602001838380828437600081840152601f19601f820116905080830192505050505050509192919290803573ffffffffffffffffffffffffffffffffffffffff169060200190929190803573ffffffffffffffffffffffffffffffffffffffff169060200190929190803573ffffffffffffffffffffffffffffffffffffffff169060200190929190803573ffffffffffffffffffffffffffffffffffffffff169060200190929190803573ffffffffffffffffffffffffffffffffffffffff1690602001909291908035906020019092919080359060200190929190803590602001909291908035906020019092919050505061126c565b6040518082815260200191505060405180910390f35b3480156109a457600080fd5b50610a11600480360360608110156109bb57600080fd5b81019080803573ffffffffffffffffffffffffffffffffffffffff169060200190929190803573ffffffffffffffffffffffffffffffffffffffff16906020019092919080359060200190929190505050611361565b604051808215151515815260200191505060405180910390f35b348015610a3757600080fd5b50610c516004803603610160811015610a4f57600080fd5b8101908080359060200190640100000000811115610a6c57600080fd5b820183602082011115610a7e57600080fd5b80359060200191846001830284011164010000000083111715610aa057600080fd5b91908080601f016020809104026020016040519081016040528093929190818152602001838380828437600081840152601f19601f820116905080830192505050505050509192919290803573ffffffffffffffffffffffffffffffffffffffff169060200190929190803573ffffffffffffffffffffffffffffffffffffffff169060200190929190803573ffffffffffffffffffffffffffffffffffffffff169060200190929190803573ffffffffffffffffffffffffffffffffffffffff169060200190929190803573ffffffffffffffffffffffffffffffffffffffff1690602001909291908035906020019092919080359060200190929190803590602001909291908035906020019092919080359060200190640100000000811115610bcb57600080fd5b820183602082011115610bdd57600080fd5b80359060200191846001830284011164010000000083111715610bff57600080fd5b91908080601f016020809104026020016040519081016040528093929190818152602001838380828437600081840152601f19601f82011690508083019250505050505050919291929050505061142e565b604051808215151515815260200191505060405180910390f35b348015610c7757600080fd5b50610c806114d2565b6040518082815260200191505060405180910390f35b348015610ca257600080fd5b50610e1d60048036036080811015610cb957600080fd5b8101908080359060200190640100000000811115610cd657600080fd5b820183602082011115610ce857600080fd5b80359060200191846001830284011164010000000083111715610d0a57600080fd5b91908080601f016020809104026020016040519081016040528093929190818152602001838380828437600081840152601f19601f82011690508083019250505050505050919291929080359060200190640100000000811115610d6d57600080fd5b820183602082011115610d7f57600080fd5b80359060200191846001830284011164010000000083111715610da157600080fd5b91908080601f016020809104026020016040519081016040528093929190818152602001838380828437600081840152601f19601f82011690508083019250505050505050919291929080359060200190929190803573ffffffffffffffffffffffffffffffffffffffff1690602001909291905050506114f2565b6040518082815260200191505060405180910390f35b600080610e488d8d8d8d8d8d8d8d8d8d61126c565b90506000610e568285611597565b90508b73ffffffffffffffffffffffffffffffffffffffff168173ffffffffffffffffffffffffffffffffffffffff1614610e9057600080fd5b3373ffffffffffffffffffffffffffffffffffffffff168c73ffffffffffffffffffffffffffffffffffffffff1614610ec857600080fd5b600080600084815260200190815260200160002054905060026000808581526020019081526020016000208190555060008114610f0457600080fd5b600193505050509b9a5050505050505050505050565b6000806000838152602001908152602001600020549050919050565b6000610f776040518060400160405280600881526020017f7472616e736665720000000000000000000000000000000000000000000000008152508d611679565b610f8057600080fd5b6000610f948d8d8d8d8d8d8d8d8d8d61126c565b9050610fa98d8d8d8d8d8c8c8c8c8a8d611736565b610fb257600080fd5b60019150509b9a5050505050505050505050565b60008273ffffffffffffffffffffffffffffffffffffffff166323b872dd8686856040518463ffffffff1660e01b8152600401808473ffffffffffffffffffffffffffffffffffffffff1673ffffffffffffffffffffffffffffffffffffffff1681526020018373ffffffffffffffffffffffffffffffffffffffff1673ffffffffffffffffffffffffffffffffffffffff1681526020018281526020019350505050602060405180830381600087803b15801561108357600080fd5b505af1158015611097573d6000803e3d6000fd5b505050506040513d60208110156110ad57600080fd5b81019080805190602001909291905050509050949350505050565b60006040518080611b1d60b2913960b201905060405180910390208b805190602001208b8b8b8b8b8b8b8b8b604051602001808c81526020018b81526020018a73ffffffffffffffffffffffffffffffffffffffff1673ffffffffffffffffffffffffffffffffffffffff1681526020018973ffffffffffffffffffffffffffffffffffffffff1673ffffffffffffffffffffffffffffffffffffffff1681526020018873ffffffffffffffffffffffffffffffffffffffff1673ffffffffffffffffffffffffffffffffffffffff1681526020018773ffffffffffffffffffffffffffffffffffffffff1673ffffffffffffffffffffffffffffffffffffffff1681526020018673ffffffffffffffffffffffffffffffffffffffff1673ffffffffffffffffffffffffffffffffffffffff1681526020018581526020018481526020018381526020018281526020019b5050505050505050505050506040516020818303038152906040528051906020012090509a9950505050505050505050565b60006040518080611ac3605a9139605a0190506040518091039020905090565b6000806112e66040518060400160405280600b81526020017f4c6176612057616c6c65740000000000000000000000000000000000000000008152506040518060400160405280600181526020017f31000000000000000000000000000000000000000000000000000000000000008152506001306114f2565b6112f88d8d8d8d8d8d8d8d8d8d6110c8565b60405160200180807f190100000000000000000000000000000000000000000000000000000000000081525060020183815260200182815260200192505050604051602081830303815290604052805190602001209050809150509a9950505050505050505050565b60008273ffffffffffffffffffffffffffffffffffffffff1663a9059cbb85846040518363ffffffff1660e01b8152600401808373ffffffffffffffffffffffffffffffffffffffff1673ffffffffffffffffffffffffffffffffffffffff16815260200182815260200192505050602060405180830381600087803b1580156113ea57600080fd5b505af11580156113fe573d6000803e3d6000fd5b505050506040513d602081101561141457600080fd5b810190808051906020019092919050505090509392505050565b600061146f6040518060400160405280600881526020017f7472616e736665720000000000000000000000000000000000000000000000008152508d611679565b1561147957600080fd5b600061148d8d8d8d8d8d8d8d8d8d8d61126c565b90506114a28d8d8d8d8d8c8c8c8c8a8d611736565b6114ab57600080fd5b60608d90506114bd8c8c8b8b85611968565b6001925050509b9a5050505050505050505050565b60006040518080611b1d60b2913960b20190506040518091039020905090565b60006040518080611ac3605a9139605a0190506040518091039020858051906020012085805190602001208585604051602001808681526020018581526020018481526020018381526020018273ffffffffffffffffffffffffffffffffffffffff1673ffffffffffffffffffffffffffffffffffffffff16815260200195505050505050604051602081830303815290604052805190602001209050949350505050565b60008060008060418551146115b25760009350505050611673565b6020850151925060408501519150606085015160001a9050601b8160ff1610156115dd57601b810190505b601b8160ff16141580156115f55750601c8160ff1614155b156116065760009350505050611673565b60018682858560405160008152602001604052604051808581526020018460ff1660ff1681526020018381526020018281526020019450505050506020604051602081039080840390855afa158015611663573d6000803e3d6000fd5b5050506020604051035193505050505b92915050565b6000815183511461168d5760009050611730565b60008090505b835181101561172a578281815181106116a857fe5b602001015160f81c60f81b7effffffffffffffffffffffffffffffffffffffffffffffffffffffffffffff19168482815181106116e157fe5b602001015160f81c60f81b7effffffffffffffffffffffffffffffffffffffffffffffffffffffffffffff19161461171d576000915050611730565b8080600101915050611693565b50600190505b92915050565b600080309050600073ffffffffffffffffffffffffffffffffffffffff168c73ffffffffffffffffffffffffffffffffffffffff1614806117b4575061177b8c611aaf565b1580156117b357508b73ffffffffffffffffffffffffffffffffffffffff163373ffffffffffffffffffffffffffffffffffffffff16145b5b8061187d57506117c38c611aaf565b801561187c57508b73ffffffffffffffffffffffffffffffffffffffff16638c0636866040518163ffffffff1660e01b8152600401602060405180830381600087803b15801561181257600080fd5b505af1158015611826573d6000803e3d6000fd5b505050506040513d602081101561183c57600080fd5b810190808051906020019092919050505073ffffffffffffffffffffffffffffffffffffffff163373ffffffffffffffffffffffffffffffffffffffff16145b5b61188657600080fd5b60006118928585611597565b90508073ffffffffffffffffffffffffffffffffffffffff168c73ffffffffffffffffffffffffffffffffffffffff16146118cc57600080fd5b8643106118d857600080fd5b60008060008781526020019081526020016000205490506001600080888152602001908152602001600020819055506000811461191457600080fd5b6119208d308d8c610fc6565b61192957600080fd5b611934338c8b611361565b61193d57600080fd5b6119498d308d8d610fc6565b61195257600080fd5b600193505050509b9a5050505050505050505050565b8373ffffffffffffffffffffffffffffffffffffffff16638f4ffcb1868486856040518563ffffffff1660e01b8152600401808573ffffffffffffffffffffffffffffffffffffffff1673ffffffffffffffffffffffffffffffffffffffff1681526020018481526020018373ffffffffffffffffffffffffffffffffffffffff1673ffffffffffffffffffffffffffffffffffffffff16815260200180602001828103825283818151815260200191508051906020019080838360005b83811015611a41578082015181840152602081019050611a26565b50505050905090810190601f168015611a6e5780820380516001836020036101000a031916815260200191505b5095505050505050600060405180830381600087803b158015611a9057600080fd5b505af1158015611aa4573d6000803e3d6000fd5b505050505050505050565b600080823b90506000811191505091905056fe454950373132446f6d61696e28737472696e6720636f6e74726163744e616d652c737472696e672076657273696f6e2c75696e7432353620636861696e49642c6164647265737320766572696679696e67436f6e7472616374294c6176615061636b657428737472696e67206d6574686f644e616d652c616464726573732072656c6179417574686f726974792c616464726573732066726f6d2c6164647265737320746f2c616464726573732077616c6c65742c6164647265737320746f6b656e2c75696e7432353620746f6b656e732c75696e743235362072656c61796572526577617264546f6b656e732c75696e7432353620657870697265732c75696e74323536206e6f6e636529a265627a7a723158204ad527708ccffb02f55916ef833651a97233ed75ef845f01978e726e7408277764736f6c63430005100032",
  "source": "pragma solidity ^0.5.16;\n\n\n//pragma experimental ABIEncoderV2;\n\n/**\n * @title SafeMath\n * @dev Math operations with safety checks that throw on error\n */\nlibrary SafeMath {\n\n  /**\n  * @dev Multiplies two numbers, throws on overflow.\n  */\n  function mul(uint256 a, uint256 b) internal pure returns (uint256) {\n    if (a == 0) {\n      return 0;\n    }\n    uint256 c = a * b;\n    assert(c / a == b);\n    return c;\n  }\n\n  /**\n  * @dev Integer division of two numbers, truncating the quotient.\n  */\n  function div(uint256 a, uint256 b) internal pure returns (uint256) {\n    // assert(b > 0); // Solidity automatically throws when dividing by 0\n    uint256 c = a / b;\n    // assert(a == b * c + a % b); // There is no case in which this doesn't hold\n    return c;\n  }\n\n  /**\n  * @dev Substracts two numbers, throws on overflow (i.e. if subtrahend is greater than minuend).\n  */\n  function sub(uint256 a, uint256 b) internal pure returns (uint256) {\n    assert(b <= a);\n    return a - b;\n  }\n\n  /**\n  * @dev Adds two numbers, throws on overflow.\n  */\n  function add(uint256 a, uint256 b) internal pure returns (uint256) {\n    uint256 c = a + b;\n    assert(c >= a);\n    return c;\n  }\n}\n\n\ncontract ECRecovery {\n\n  /**\n   * @dev Recover signer address from a message by using their signature\n   * @param hash bytes32 message, the hash is the signed message. What is recovered is the signer address.\n   * @param sig bytes signature, the signature is generated using web3.eth.sign()\n   */\n  function recover(bytes32 hash, bytes memory sig) internal  pure returns (address) {\n    bytes32 r;\n    bytes32 s;\n    uint8 v;\n\n    //Check the signature length\n    if (sig.length != 65) {\n      return (address(0));\n    }\n\n    // Divide the signature in r, s and v variables\n    assembly {\n      r := mload(add(sig, 32))\n      s := mload(add(sig, 64))\n      v := byte(0, mload(add(sig, 96)))\n    }\n\n    // Version of signature should be 27 or 28, but 0 and 1 are also possible versions\n    if (v < 27) {\n      v += 27;\n    }\n\n    // If the version is correct return the signer address\n    if (v != 27 && v != 28) {\n      return (address(0));\n    } else {\n      return ecrecover(hash, v, r, s);\n    }\n  }\n\n}\n\n\n\n/*\n\nThis is a token wallet contract\n\nAPPROVE your tokens to this contract to give them super powers\n\nTokens can be sucked into and spent from the contract with only an ecSignature from the owner\n\n*/\n\ncontract ERC20Interface {\n    function totalSupply() public view returns (uint);\n    function balanceOf(address tokenOwner) public view returns (uint balance);\n    function allowance(address tokenOwner, address spender) public view returns (uint remaining);\n    function transfer(address to, uint tokens) public returns (bool success);\n    function approve(address spender, uint tokens) public returns (bool success);\n    function transferFrom(address from, address to, uint tokens) public returns (bool success);\n\n    event Transfer(address indexed from, address indexed to, uint tokens);\n    event Approval(address indexed tokenOwner, address indexed spender, uint tokens);\n}\n\n\n\ncontract RelayAuthorityInterface {\n    function getRelayAuthority() public returns (address);\n}\n\ncontract ApproveAndCallFallBack {\n    function receiveApproval(address from, uint256 tokens, address token, bytes memory data) public;\n}\n\n\n\n\n\n\ncontract LavaWallet is ECRecovery{\n\n  using SafeMath for uint;\n\n  // balances[tokenContractAddress][EthereumAccountAddress] = 0\n  // mapping(address => mapping (address => uint256)) balances;\n\n   //token => owner => spender : amount\n//   mapping(address => mapping (address => mapping (address => uint256))) allowed;\n\n   //mapping(address => uint256) depositedTokens;\n\n   mapping(bytes32 => uint256) burnedSignatures;\n\n\n  event Deposit(address token, address user, uint amount, uint balance);\n  event Withdraw(address token, address user, uint amount, uint balance);\n  event Transfer(address indexed from, address indexed to,address token, uint tokens);\n  event Approval(address indexed tokenOwner, address indexed spender,address token, uint tokens);\n\n\n\n  /*struct EIP712Domain {\n      string  name;\n      address verifyingContract;\n  }*/\n\n\n  struct LavaPacket {\n    string methodName;\n    address relayAuthority; //either a contract or an account\n    address from;\n    address to;\n    address wallet;  //this contract address\n    address token;\n    uint256 tokens;\n  //  address relayerRewardToken;\n    uint256 relayerRewardTokens;\n    uint256 expires;\n    uint256 nonce;\n  }\n\n\n  /*\n      MUST update these if architecture changes !!\n      MAKE SURE there are no spaces !\n  */\n\n\n\n\n    bytes32 constant EIP712DOMAIN_TYPEHASH = keccak256(\n          \"EIP712Domain(string contractName,string version,uint256 chainId,address verifyingContract)\"\n      );\n\n   function getLavaDomainTypehash() public pure returns (bytes32) {\n      return EIP712DOMAIN_TYPEHASH;\n   }\n\n    function getEIP712DomainHash(string memory contractName, string memory version, uint256 chainId, address verifyingContract) public pure returns (bytes32) {\n\n      return keccak256(abi.encode(\n            EIP712DOMAIN_TYPEHASH,\n            keccak256(bytes(contractName)),\n            keccak256(bytes(version)),\n            chainId,\n            verifyingContract\n        ));\n    }\n\n\n    /*  function getDomainHash(EIP712Domain eip712Domain)  pure returns (bytes32) {\n            return keccak256(abi.encode(\n                EIP712DOMAIN_TYPEHASH,\n                keccak256(bytes(eip712Domain.name)),\n                eip712Domain.verifyingContract\n            ));\n        }*/\n\n\n  bytes32 constant LAVAPACKET_TYPEHASH = keccak256(\n      \"LavaPacket(string methodName,address relayAuthority,address from,address to,address wallet,address token,uint256 tokens,uint256 relayerRewardTokens,uint256 expires,uint256 nonce)\"\n  );\n\n\n\n    function getLavaPacketTypehash()  public pure returns (bytes32) {\n      return LAVAPACKET_TYPEHASH;\n  }\n\n\n\n   function getLavaPacketHash(string memory methodName, address relayAuthority,address from,address to, address wallet, address token, uint256 tokens,uint256 relayerRewardTokens,uint256 expires,uint256 nonce) public pure returns (bytes32) {\n          return keccak256(abi.encode(\n              LAVAPACKET_TYPEHASH,\n              keccak256(bytes(methodName)),\n              relayAuthority,\n              from,\n              to,\n              wallet,\n              token,\n              tokens,\n              relayerRewardTokens,\n              expires,\n              nonce\n          ));\n      }\n\n\n   constructor(  ) public {\n\n\n  }\n\n\n  //do not allow ether to enter\n  function() external payable {\n      revert();\n  }\n\n\n\n\n\n  // function getLavaPacket(address from,)\n\n   //This replaces getLavaTypedDataHash .. how to handle methodName?\n\n  /* function getLavaTypedDataHash(LavaPacket packet) public  view returns (bytes32) {\n\n\n          // Note: we need to use `encodePacked` here instead of `encode`.\n          bytes32 digest = keccak256(abi.encodePacked(\n              \"\\x19\\x01\",\n            //  DOMAIN_SEPARATOR,\n              getLavaPacketHash(packet)\n          ));\n          return digest;\n      }*/\n\n\n      function getLavaTypedDataHash(string memory methodName, address relayAuthority,address from,address to, address wallet,address token,uint256 tokens,uint256 relayerRewardTokens,uint256 expires,uint256 nonce) public view returns (bytes32) {\n\n\n              // Note: we need to use `encodePacked` here instead of `encode`.\n              bytes32 digest = keccak256(abi.encodePacked(\n                  \"\\x19\\x01\",\n                  getEIP712DomainHash('Lava Wallet','1',1,address(this)),\n                  getLavaPacketHash(methodName,relayAuthority,from,to,wallet,token,tokens,relayerRewardTokens,expires,nonce)\n              ));\n              return digest;\n          }\n\n\n\n        /*\n        This uses the metaTX signature and the fact that the ERC20 tokens are Approved to this contract to absorb the tokens into this contract.\n        Then, they can be sent out by this contract using .Tranfer using the other methods.\n        */\n\n   function _absorbTokensWithSignature(  string memory methodName, address relayAuthority,address from,address to, address token,uint256 tokens,uint256 relayerRewardTokens,uint256 expires,uint256 nonce, bytes32 sigHash, bytes memory signature) internal returns (bool success)\n   {\n      address wallet = address(this);\n\n       /*\n        Always allow relaying if the specified relayAuthority is 0.\n        If the authority address is not a contract, allow it to relay\n        If the authority address is a contract, allow its defined 'getAuthority()' delegate to relay\n       */\n\n       require( relayAuthority == address(0x0)\n         || (!addressContainsContract(relayAuthority) && msg.sender == relayAuthority)\n         || (addressContainsContract(relayAuthority) && msg.sender == RelayAuthorityInterface(relayAuthority).getRelayAuthority())  );\n\n\n\n      address recoveredSignatureSigner = recover(sigHash,signature);\n\n\n       //make sure the signer is the depositor of the tokens\n       require(from == recoveredSignatureSigner);\n\n\n       //make sure the signature has not expired\n       require(block.number < expires);\n\n       uint burnedSignature = burnedSignatures[sigHash];\n       burnedSignatures[sigHash] = 0x1; //spent\n       require(burnedSignature == 0x0 );\n\n\n       //transferRelayerReward into this contract (should be approved to it) and then to the relayer!\n       //this is reverting \n       require(transferTokensFrom(from, address(this), token, relayerRewardTokens));\n       require(transferTokens(msg.sender, token, relayerRewardTokens));\n\n\n       //transfer tokens into this contract to stage them for sending out\n       require(transferTokensFrom(from, address(this), token, tokens));\n\n\n       return true;\n   }\n\n   //No approve needed, only from msg.sender\n   function transferTokens(address to, address token, uint tokens) public returns (bool success) {\n        return ERC20Interface(token).transfer(to, tokens );\n    }\n\n\n    ///transfer tokens within the lava balances\n    //Requires approval\n   function transferTokensFrom( address from, address to,address token,  uint tokens) public returns (bool success) {\n      return ERC20Interface(token).transferFrom(from, to, tokens );\n   }\n\n\n/*\n   function approveTokensWithSignature(LavaPacket packet, bytes signature) public returns (bool success)\n   {\n       require(bytesEqual('approve',bytes(methodName)));\n\n       bytes32 sigHash = getLavaTypedDataHash(packet);\n\n       require(_tokenApprovalWithSignature(packet,sigHash,signature));\n\n\n       return true;\n   }*/\n\n\n\n   /*\n    Approve lava tokens for a smart contract and call the contracts receiveApproval method all in one fell swoop\n\n\n    */\n\n    function approveAndCallWithSignature( string memory methodName, address relayAuthority,address from,address to, address wallet, address token, uint256 tokens,uint256 relayerRewardTokens,uint256 expires,uint256 nonce, bytes memory signature ) public returns (bool success)   {\n\n       require(!bytesEqual('transfer',bytes(methodName)));\n\n        //check to make sure that signature == ecrecover signature\n       bytes32 sigHash = getLavaTypedDataHash(methodName,relayAuthority,from,to,wallet,token,tokens,relayerRewardTokens,expires,nonce);\n\n       require(_absorbTokensWithSignature(methodName,relayAuthority,from,to,wallet,tokens,relayerRewardTokens,expires,nonce,sigHash,signature));\n\n       bytes memory method = bytes(methodName);\n\n       _sendApproveAndCall(from,to,token,tokens,method);\n\n        return true;\n    }\n\n    function _sendApproveAndCall(address from, address to, address token, uint tokens, bytes memory methodName) internal\n    {\n        ApproveAndCallFallBack(to).receiveApproval(from, tokens, token, bytes(methodName));\n    }\n\n\n\n   function transferTokensWithSignature(string memory methodName, address relayAuthority,address from,address to, address wallet,address token, uint256 tokens,uint256 relayerRewardTokens,uint256 expires,uint256 nonce, bytes memory signature) public returns (bool success)\n {\n\n     require(bytesEqual('transfer',bytes(methodName)));\n\n     //check to make sure that signature == ecrecover signature\n     bytes32 sigHash = getLavaTypedDataHash(methodName,relayAuthority,from,to,wallet,token, tokens,relayerRewardTokens,expires,nonce);\n\n     require(_absorbTokensWithSignature(methodName,relayAuthority,from,to,wallet,tokens,relayerRewardTokens,expires,nonce,sigHash,signature));\n\n        //this is failing?\n    ///   require(transferTokens(  to, token,  tokens));\n\n\n     return true;\n\n }\n\n function burnSignature( string memory methodName, address relayAuthority,address from,address to, address wallet,address token,uint256 tokens,uint256 relayerRewardTokens,uint256 expires,uint256 nonce,  bytes memory signature) public returns (bool success)\n      {\n\n\n         bytes32 sigHash = getLavaTypedDataHash(methodName,relayAuthority,from,to,wallet,token, tokens,relayerRewardTokens,expires,nonce);\n\n          address recoveredSignatureSigner = recover(sigHash,signature);\n\n          //make sure the invalidator is the signer\n          require(recoveredSignatureSigner == from);\n\n          //only the original packet owner can burn signature, not a relay\n          require(from == msg.sender);\n\n          //make sure this signature has never been used\n          uint burnedSignature = burnedSignatures[sigHash];\n          burnedSignatures[sigHash] = 0x2; //invalidated\n          require(burnedSignature == 0x0);\n\n          return true;\n      }\n\n\n\n     function signatureBurnStatus(bytes32 digest) public view returns (uint)\n     {\n       return (burnedSignatures[digest]);\n     }\n\n\n\n\n       /*\n         Receive approval to spend tokens and perform any action all in one transaction\n       */\n     /*function receiveApproval(address from, uint256 tokens, address token, bytes data) public returns (bool success) {\n\n\n        // do something ?\n\n     }*/\n\n\n\n\n\n\n\n\n     function addressContainsContract(address _to) view internal returns (bool)\n     {\n       uint codeLength;\n\n        assembly {\n            // Retrieve the size of the code on target address, this needs assembly .\n            codeLength := extcodesize(_to)\n        }\n\n         return (codeLength>0);\n     }\n\n\n     function bytesEqual(bytes memory b1,bytes memory b2) pure internal returns (bool)\n        {\n          if(b1.length != b2.length) return false;\n\n          for (uint i=0; i<b1.length; i++) {\n            if(b1[i] != b2[i]) return false;\n          }\n\n          return true;\n        }\n\n\n}\n",
  "sourcePath": "/home/andy/dev/lava-wallet/contracts/LavaWallet.sol",
  "compiler": {
    "name": "solc",
    "version": "0.5.16+commit.9c3226ce.Emscripten.clang"
  },
  "schemaVersion": "3.0.21",
  "updatedAt": "2020-01-18T07:43:26.801Z",
  "devdoc": {
    "methods": {}
  },
  "userdoc": {
    "methods": {
      "transferTokensFrom(address,address,address,uint256)": {
        "notice": "transfer tokens within the lava balances"
      }
    }
  }
}