{
  "contractName": "TestToken",
  "abi": [
    {
      "inputs": [],
      "payable": false,
      "stateMutability": "nonpayable",
      "type": "constructor"
    },
    {
      "anonymous": false,
      "inputs": [
        {
          "indexed": true,
          "internalType": "address",
          "name": "tokenOwner",
          "type": "address"
        },
        {
          "indexed": true,
          "internalType": "address",
          "name": "spender",
          "type": "address"
        },
        {
          "indexed": false,
          "internalType": "uint256",
          "name": "tokens",
          "type": "uint256"
        }
      ],
      "name": "Approval",
      "type": "event"
    },
    {
      "anonymous": false,
      "inputs": [
        {
          "indexed": true,
          "internalType": "address",
          "name": "from",
          "type": "address"
        },
        {
          "indexed": false,
          "internalType": "uint256",
          "name": "reward_amount",
          "type": "uint256"
        },
        {
          "indexed": false,
          "internalType": "uint256",
          "name": "epochCount",
          "type": "uint256"
        },
        {
          "indexed": false,
          "internalType": "bytes32",
          "name": "newChallengeNumber",
          "type": "bytes32"
        }
      ],
      "name": "Mint",
      "type": "event"
    },
    {
      "anonymous": false,
      "inputs": [
        {
          "indexed": true,
          "internalType": "address",
          "name": "_from",
          "type": "address"
        },
        {
          "indexed": true,
          "internalType": "address",
          "name": "_to",
          "type": "address"
        }
      ],
      "name": "OwnershipTransferred",
      "type": "event"
    },
    {
      "anonymous": false,
      "inputs": [
        {
          "indexed": true,
          "internalType": "address",
          "name": "from",
          "type": "address"
        },
        {
          "indexed": true,
          "internalType": "address",
          "name": "to",
          "type": "address"
        },
        {
          "indexed": false,
          "internalType": "uint256",
          "name": "tokens",
          "type": "uint256"
        }
      ],
      "name": "Transfer",
      "type": "event"
    },
    {
      "payable": true,
      "stateMutability": "payable",
      "type": "fallback"
    },
    {
      "constant": true,
      "inputs": [],
      "name": "_BLOCKS_PER_READJUSTMENT",
      "outputs": [
        {
          "internalType": "uint256",
          "name": "",
          "type": "uint256"
        }
      ],
      "payable": false,
      "stateMutability": "view",
      "type": "function"
    },
    {
      "constant": true,
      "inputs": [],
      "name": "_MAXIMUM_TARGET",
      "outputs": [
        {
          "internalType": "uint256",
          "name": "",
          "type": "uint256"
        }
      ],
      "payable": false,
      "stateMutability": "view",
      "type": "function"
    },
    {
      "constant": true,
      "inputs": [],
      "name": "_MINIMUM_TARGET",
      "outputs": [
        {
          "internalType": "uint256",
          "name": "",
          "type": "uint256"
        }
      ],
      "payable": false,
      "stateMutability": "view",
      "type": "function"
    },
    {
      "constant": true,
      "inputs": [],
      "name": "_totalSupply",
      "outputs": [
        {
          "internalType": "uint256",
          "name": "",
          "type": "uint256"
        }
      ],
      "payable": false,
      "stateMutability": "view",
      "type": "function"
    },
    {
      "constant": false,
      "inputs": [],
      "name": "acceptOwnership",
      "outputs": [],
      "payable": false,
      "stateMutability": "nonpayable",
      "type": "function"
    },
    {
      "constant": true,
      "inputs": [],
      "name": "challengeNumber",
      "outputs": [
        {
          "internalType": "bytes32",
          "name": "",
          "type": "bytes32"
        }
      ],
      "payable": false,
      "stateMutability": "view",
      "type": "function"
    },
    {
      "constant": true,
      "inputs": [],
      "name": "decimals",
      "outputs": [
        {
          "internalType": "uint8",
          "name": "",
          "type": "uint8"
        }
      ],
      "payable": false,
      "stateMutability": "view",
      "type": "function"
    },
    {
      "constant": true,
      "inputs": [],
      "name": "epochCount",
      "outputs": [
        {
          "internalType": "uint256",
          "name": "",
          "type": "uint256"
        }
      ],
      "payable": false,
      "stateMutability": "view",
      "type": "function"
    },
    {
      "constant": true,
      "inputs": [],
      "name": "lastRewardAmount",
      "outputs": [
        {
          "internalType": "uint256",
          "name": "",
          "type": "uint256"
        }
      ],
      "payable": false,
      "stateMutability": "view",
      "type": "function"
    },
    {
      "constant": true,
      "inputs": [],
      "name": "lastRewardEthBlockNumber",
      "outputs": [
        {
          "internalType": "uint256",
          "name": "",
          "type": "uint256"
        }
      ],
      "payable": false,
      "stateMutability": "view",
      "type": "function"
    },
    {
      "constant": true,
      "inputs": [],
      "name": "lastRewardTo",
      "outputs": [
        {
          "internalType": "address",
          "name": "",
          "type": "address"
        }
      ],
      "payable": false,
      "stateMutability": "view",
      "type": "function"
    },
    {
      "constant": true,
      "inputs": [],
      "name": "latestDifficultyPeriodStarted",
      "outputs": [
        {
          "internalType": "uint256",
          "name": "",
          "type": "uint256"
        }
      ],
      "payable": false,
      "stateMutability": "view",
      "type": "function"
    },
    {
      "constant": true,
      "inputs": [],
      "name": "maxSupplyForEra",
      "outputs": [
        {
          "internalType": "uint256",
          "name": "",
          "type": "uint256"
        }
      ],
      "payable": false,
      "stateMutability": "view",
      "type": "function"
    },
    {
      "constant": true,
      "inputs": [],
      "name": "miningTarget",
      "outputs": [
        {
          "internalType": "uint256",
          "name": "",
          "type": "uint256"
        }
      ],
      "payable": false,
      "stateMutability": "view",
      "type": "function"
    },
    {
      "constant": true,
      "inputs": [],
      "name": "name",
      "outputs": [
        {
          "internalType": "string",
          "name": "",
          "type": "string"
        }
      ],
      "payable": false,
      "stateMutability": "view",
      "type": "function"
    },
    {
      "constant": true,
      "inputs": [],
      "name": "newOwner",
      "outputs": [
        {
          "internalType": "address",
          "name": "",
          "type": "address"
        }
      ],
      "payable": false,
      "stateMutability": "view",
      "type": "function"
    },
    {
      "constant": true,
      "inputs": [],
      "name": "owner",
      "outputs": [
        {
          "internalType": "address",
          "name": "",
          "type": "address"
        }
      ],
      "payable": false,
      "stateMutability": "view",
      "type": "function"
    },
    {
      "constant": true,
      "inputs": [],
      "name": "rewardEra",
      "outputs": [
        {
          "internalType": "uint256",
          "name": "",
          "type": "uint256"
        }
      ],
      "payable": false,
      "stateMutability": "view",
      "type": "function"
    },
    {
      "constant": true,
      "inputs": [],
      "name": "symbol",
      "outputs": [
        {
          "internalType": "string",
          "name": "",
          "type": "string"
        }
      ],
      "payable": false,
      "stateMutability": "view",
      "type": "function"
    },
    {
      "constant": true,
      "inputs": [],
      "name": "tokensMinted",
      "outputs": [
        {
          "internalType": "uint256",
          "name": "",
          "type": "uint256"
        }
      ],
      "payable": false,
      "stateMutability": "view",
      "type": "function"
    },
    {
      "constant": false,
      "inputs": [
        {
          "internalType": "address",
          "name": "_newOwner",
          "type": "address"
        }
      ],
      "name": "transferOwnership",
      "outputs": [],
      "payable": false,
      "stateMutability": "nonpayable",
      "type": "function"
    },
    {
      "constant": true,
      "inputs": [],
      "name": "totalSupply",
      "outputs": [
        {
          "internalType": "uint256",
          "name": "",
          "type": "uint256"
        }
      ],
      "payable": false,
      "stateMutability": "view",
      "type": "function"
    },
    {
      "constant": true,
      "inputs": [
        {
          "internalType": "address",
          "name": "tokenOwner",
          "type": "address"
        }
      ],
      "name": "balanceOf",
      "outputs": [
        {
          "internalType": "uint256",
          "name": "balance",
          "type": "uint256"
        }
      ],
      "payable": false,
      "stateMutability": "view",
      "type": "function"
    },
    {
      "constant": false,
      "inputs": [
        {
          "internalType": "address",
          "name": "to",
          "type": "address"
        },
        {
          "internalType": "uint256",
          "name": "tokens",
          "type": "uint256"
        }
      ],
      "name": "transfer",
      "outputs": [
        {
          "internalType": "bool",
          "name": "success",
          "type": "bool"
        }
      ],
      "payable": false,
      "stateMutability": "nonpayable",
      "type": "function"
    },
    {
      "constant": false,
      "inputs": [
        {
          "internalType": "address",
          "name": "spender",
          "type": "address"
        },
        {
          "internalType": "uint256",
          "name": "tokens",
          "type": "uint256"
        }
      ],
      "name": "approve",
      "outputs": [
        {
          "internalType": "bool",
          "name": "success",
          "type": "bool"
        }
      ],
      "payable": false,
      "stateMutability": "nonpayable",
      "type": "function"
    },
    {
      "constant": false,
      "inputs": [
        {
          "internalType": "address",
          "name": "from",
          "type": "address"
        },
        {
          "internalType": "address",
          "name": "to",
          "type": "address"
        },
        {
          "internalType": "uint256",
          "name": "tokens",
          "type": "uint256"
        }
      ],
      "name": "transferFrom",
      "outputs": [
        {
          "internalType": "bool",
          "name": "success",
          "type": "bool"
        }
      ],
      "payable": false,
      "stateMutability": "nonpayable",
      "type": "function"
    },
    {
      "constant": true,
      "inputs": [
        {
          "internalType": "address",
          "name": "tokenOwner",
          "type": "address"
        },
        {
          "internalType": "address",
          "name": "spender",
          "type": "address"
        }
      ],
      "name": "allowance",
      "outputs": [
        {
          "internalType": "uint256",
          "name": "remaining",
          "type": "uint256"
        }
      ],
      "payable": false,
      "stateMutability": "view",
      "type": "function"
    },
    {
      "constant": false,
      "inputs": [
        {
          "internalType": "address",
          "name": "spender",
          "type": "address"
        },
        {
          "internalType": "uint256",
          "name": "tokens",
          "type": "uint256"
        },
        {
          "internalType": "bytes",
          "name": "data",
          "type": "bytes"
        }
      ],
      "name": "approveAndCall",
      "outputs": [
        {
          "internalType": "bool",
          "name": "success",
          "type": "bool"
        }
      ],
      "payable": false,
      "stateMutability": "nonpayable",
      "type": "function"
    },
    {
      "constant": false,
      "inputs": [
        {
          "internalType": "address",
          "name": "tokenAddress",
          "type": "address"
        },
        {
          "internalType": "uint256",
          "name": "tokens",
          "type": "uint256"
        }
      ],
      "name": "transferAnyERC20Token",
      "outputs": [
        {
          "internalType": "bool",
          "name": "success",
          "type": "bool"
        }
      ],
      "payable": false,
      "stateMutability": "nonpayable",
      "type": "function"
    }
  ],
  "bytecode": "0x6080604052610400600855620100006009557d040000000000000000000000000000000000000000000000000000000000600a556000601260006101000a81548160ff0219169083151502179055503480156200005b57600080fd5b50336000806101000a81548173ffffffffffffffffffffffffffffffffffffffff021916908373ffffffffffffffffffffffffffffffffffffffff1602179055506040518060400160405280600481526020017f544553540000000000000000000000000000000000000000000000000000000081525060029080519060200190620000e99291906200024a565b506040518060400160405280600a81526020017f5465737420546f6b656e0000000000000000000000000000000000000000000081525060039080519060200190620001379291906200024a565b506008600460006101000a81548160ff021916908360ff160217905550600460009054906101000a900460ff1660ff16600a0a6301406f4002600581905550600554601560003373ffffffffffffffffffffffffffffffffffffffff1673ffffffffffffffffffffffffffffffffffffffff168152602001908152602001600020819055506000809054906101000a900473ffffffffffffffffffffffffffffffffffffffff1673ffffffffffffffffffffffffffffffffffffffff163373ffffffffffffffffffffffffffffffffffffffff167fddf252ad1be2c89b69c2b068fc378daa952ba7f163c4a11628f55a4df523b3ef6005546040518082815260200191505060405180910390a3620002f9565b828054600181600116156101000203166002900490600052602060002090601f016020900481019282601f106200028d57805160ff1916838001178555620002be565b82800160010185558215620002be579182015b82811115620002bd578251825591602001919060010190620002a0565b5b509050620002cd9190620002d1565b5090565b620002f691905b80821115620002f2576000816000905550600101620002d8565b5090565b90565b61193c80620003096000396000f3fe6080604052600436106101c25760003560e01c806387a2a9d6116100f7578063bafedcaa11610095578063dc39d06d11610064578063dc39d06d1461094b578063dc6e9cf9146109be578063dd62ed3e146109e9578063f2fde38b14610a6e576101c2565b8063bafedcaa14610794578063cae9ca51146107bf578063cb9ae707146108c9578063d4ee1d90146108f4576101c2565b80638da5cb5b116100d15780638da5cb5b1461060f57806395d89b4114610666578063a9059cbb146106f6578063b5ade81b14610769576101c2565b806387a2a9d61461058e5780638a769d35146105b95780638ae0368b146105e4576101c2565b80633eaaf86b116101645780636fd396d61161013e5780636fd396d61461049057806370a08231146104e757806379ba50971461054c578063829965cc14610563576101c2565b80633eaaf86b1461040f5780634fa972e11461043a5780636de9f32b14610465576101c2565b806318160ddd116101a057806318160ddd146102f557806323b872dd146103205780632d38bf7a146103b3578063313ce567146103de576101c2565b806306fdde03146101c7578063095ea7b314610257578063163aa00d146102ca575b600080fd5b3480156101d357600080fd5b506101dc610abf565b6040518080602001828103825283818151815260200191508051906020019080838360005b8381101561021c578082015181840152602081019050610201565b50505050905090810190601f1680156102495780820380516001836020036101000a031916815260200191505b509250505060405180910390f35b34801561026357600080fd5b506102b06004803603604081101561027a57600080fd5b81019080803573ffffffffffffffffffffffffffffffffffffffff16906020019092919080359060200190929190505050610b5d565b604051808215151515815260200191505060405180910390f35b3480156102d657600080fd5b506102df610c4f565b6040518082815260200191505060405180910390f35b34801561030157600080fd5b5061030a610c55565b6040518082815260200191505060405180910390f35b34801561032c57600080fd5b506103996004803603606081101561034357600080fd5b81019080803573ffffffffffffffffffffffffffffffffffffffff169060200190929190803573ffffffffffffffffffffffffffffffffffffffff16906020019092919080359060200190929190505050610ca0565b604051808215151515815260200191505060405180910390f35b3480156103bf57600080fd5b506103c8610f4b565b6040518082815260200191505060405180910390f35b3480156103ea57600080fd5b506103f3610f51565b604051808260ff1660ff16815260200191505060405180910390f35b34801561041b57600080fd5b50610424610f64565b6040518082815260200191505060405180910390f35b34801561044657600080fd5b5061044f610f6a565b6040518082815260200191505060405180910390f35b34801561047157600080fd5b5061047a610f70565b6040518082815260200191505060405180910390f35b34801561049c57600080fd5b506104a5610f76565b604051808273ffffffffffffffffffffffffffffffffffffffff1673ffffffffffffffffffffffffffffffffffffffff16815260200191505060405180910390f35b3480156104f357600080fd5b506105366004803603602081101561050a57600080fd5b81019080803573ffffffffffffffffffffffffffffffffffffffff169060200190929190505050610f9c565b6040518082815260200191505060405180910390f35b34801561055857600080fd5b50610561610fe5565b005b34801561056f57600080fd5b50610578611182565b6040518082815260200191505060405180910390f35b34801561059a57600080fd5b506105a3611188565b6040518082815260200191505060405180910390f35b3480156105c557600080fd5b506105ce61118e565b6040518082815260200191505060405180910390f35b3480156105f057600080fd5b506105f9611194565b6040518082815260200191505060405180910390f35b34801561061b57600080fd5b5061062461119a565b604051808273ffffffffffffffffffffffffffffffffffffffff1673ffffffffffffffffffffffffffffffffffffffff16815260200191505060405180910390f35b34801561067257600080fd5b5061067b6111bf565b6040518080602001828103825283818151815260200191508051906020019080838360005b838110156106bb5780820151818401526020810190506106a0565b50505050905090810190601f1680156106e85780820380516001836020036101000a031916815260200191505b509250505060405180910390f35b34801561070257600080fd5b5061074f6004803603604081101561071957600080fd5b81019080803573ffffffffffffffffffffffffffffffffffffffff1690602001909291908035906020019092919050505061125d565b604051808215151515815260200191505060405180910390f35b34801561077557600080fd5b5061077e6113f8565b6040518082815260200191505060405180910390f35b3480156107a057600080fd5b506107a96113fe565b6040518082815260200191505060405180910390f35b3480156107cb57600080fd5b506108af600480360360608110156107e257600080fd5b81019080803573ffffffffffffffffffffffffffffffffffffffff169060200190929190803590602001909291908035906020019064010000000081111561082957600080fd5b82018360208201111561083b57600080fd5b8035906020019184600183028401116401000000008311171561085d57600080fd5b91908080601f016020809104026020016040519081016040528093929190818152602001838380828437600081840152601f19601f820116905080830192505050505050509192919290505050611404565b604051808215151515815260200191505060405180910390f35b3480156108d557600080fd5b506108de611637565b6040518082815260200191505060405180910390f35b34801561090057600080fd5b5061090961163d565b604051808273ffffffffffffffffffffffffffffffffffffffff1673ffffffffffffffffffffffffffffffffffffffff16815260200191505060405180910390f35b34801561095757600080fd5b506109a46004803603604081101561096e57600080fd5b81019080803573ffffffffffffffffffffffffffffffffffffffff16906020019092919080359060200190929190505050611663565b604051808215151515815260200191505060405180910390f35b3480156109ca57600080fd5b506109d36117a9565b6040518082815260200191505060405180910390f35b3480156109f557600080fd5b50610a5860048036036040811015610a0c57600080fd5b81019080803573ffffffffffffffffffffffffffffffffffffffff169060200190929190803573ffffffffffffffffffffffffffffffffffffffff1690602001909291905050506117af565b6040518082815260200191505060405180910390f35b348015610a7a57600080fd5b50610abd60048036036020811015610a9157600080fd5b81019080803573ffffffffffffffffffffffffffffffffffffffff169060200190929190505050611836565b005b60038054600181600116156101000203166002900480601f016020809104026020016040519081016040528092919081815260200182805460018160011615610100020316600290048015610b555780601f10610b2a57610100808354040283529160200191610b55565b820191906000526020600020905b815481529060010190602001808311610b3857829003601f168201915b505050505081565b600081601660003373ffffffffffffffffffffffffffffffffffffffff1673ffffffffffffffffffffffffffffffffffffffff16815260200190815260200160002060008573ffffffffffffffffffffffffffffffffffffffff1673ffffffffffffffffffffffffffffffffffffffff168152602001908152602001600020819055508273ffffffffffffffffffffffffffffffffffffffff163373ffffffffffffffffffffffffffffffffffffffff167f8c5be1e5ebec7d5bd14f71427d1e84f3dd0314c0f7b2291e5b200ac8c7c3b925846040518082815260200191505060405180910390a36001905092915050565b60115481565b6000601560008073ffffffffffffffffffffffffffffffffffffffff1673ffffffffffffffffffffffffffffffffffffffff1681526020019081526020016000205460055403905090565b6000610cf482601560008773ffffffffffffffffffffffffffffffffffffffff1673ffffffffffffffffffffffffffffffffffffffff168152602001908152602001600020546118d390919063ffffffff16565b601560008673ffffffffffffffffffffffffffffffffffffffff1673ffffffffffffffffffffffffffffffffffffffff16815260200190815260200160002081905550610dc682601660008773ffffffffffffffffffffffffffffffffffffffff1673ffffffffffffffffffffffffffffffffffffffff16815260200190815260200160002060003373ffffffffffffffffffffffffffffffffffffffff1673ffffffffffffffffffffffffffffffffffffffff168152602001908152602001600020546118d390919063ffffffff16565b601660008673ffffffffffffffffffffffffffffffffffffffff1673ffffffffffffffffffffffffffffffffffffffff16815260200190815260200160002060003373ffffffffffffffffffffffffffffffffffffffff1673ffffffffffffffffffffffffffffffffffffffff16815260200190815260200160002081905550610e9882601560008673ffffffffffffffffffffffffffffffffffffffff1673ffffffffffffffffffffffffffffffffffffffff168152602001908152602001600020546118ed90919063ffffffff16565b601560008573ffffffffffffffffffffffffffffffffffffffff1673ffffffffffffffffffffffffffffffffffffffff168152602001908152602001600020819055508273ffffffffffffffffffffffffffffffffffffffff168473ffffffffffffffffffffffffffffffffffffffff167fddf252ad1be2c89b69c2b068fc378daa952ba7f163c4a11628f55a4df523b3ef846040518082815260200191505060405180910390a3600190509392505050565b600d5481565b600460009054906101000a900460ff1681565b60055481565b600e5481565b60145481565b600f60009054906101000a900473ffffffffffffffffffffffffffffffffffffffff1681565b6000601560008373ffffffffffffffffffffffffffffffffffffffff1673ffffffffffffffffffffffffffffffffffffffff168152602001908152602001600020549050919050565b600160009054906101000a900473ffffffffffffffffffffffffffffffffffffffff1673ffffffffffffffffffffffffffffffffffffffff163373ffffffffffffffffffffffffffffffffffffffff161461103f57600080fd5b600160009054906101000a900473ffffffffffffffffffffffffffffffffffffffff1673ffffffffffffffffffffffffffffffffffffffff166000809054906101000a900473ffffffffffffffffffffffffffffffffffffffff1673ffffffffffffffffffffffffffffffffffffffff167f8be0079c531659141344cd1fd0a4f28419497f9722a3daafe3b4186f6b6457e060405160405180910390a3600160009054906101000a900473ffffffffffffffffffffffffffffffffffffffff166000806101000a81548173ffffffffffffffffffffffffffffffffffffffff021916908373ffffffffffffffffffffffffffffffffffffffff1602179055506000600160006101000a81548173ffffffffffffffffffffffffffffffffffffffff021916908373ffffffffffffffffffffffffffffffffffffffff160217905550565b60075481565b600a5481565b600b5481565b600c5481565b6000809054906101000a900473ffffffffffffffffffffffffffffffffffffffff1681565b60028054600181600116156101000203166002900480601f0160208091040260200160405190810160405280929190818152602001828054600181600116156101000203166002900480156112555780601f1061122a57610100808354040283529160200191611255565b820191906000526020600020905b81548152906001019060200180831161123857829003601f168201915b505050505081565b60006112b182601560003373ffffffffffffffffffffffffffffffffffffffff1673ffffffffffffffffffffffffffffffffffffffff168152602001908152602001600020546118d390919063ffffffff16565b601560003373ffffffffffffffffffffffffffffffffffffffff1673ffffffffffffffffffffffffffffffffffffffff1681526020019081526020016000208190555061134682601560008673ffffffffffffffffffffffffffffffffffffffff1673ffffffffffffffffffffffffffffffffffffffff168152602001908152602001600020546118ed90919063ffffffff16565b601560008573ffffffffffffffffffffffffffffffffffffffff1673ffffffffffffffffffffffffffffffffffffffff168152602001908152602001600020819055508273ffffffffffffffffffffffffffffffffffffffff163373ffffffffffffffffffffffffffffffffffffffff167fddf252ad1be2c89b69c2b068fc378daa952ba7f163c4a11628f55a4df523b3ef846040518082815260200191505060405180910390a36001905092915050565b60085481565b60105481565b600082601660003373ffffffffffffffffffffffffffffffffffffffff1673ffffffffffffffffffffffffffffffffffffffff16815260200190815260200160002060008673ffffffffffffffffffffffffffffffffffffffff1673ffffffffffffffffffffffffffffffffffffffff168152602001908152602001600020819055508373ffffffffffffffffffffffffffffffffffffffff163373ffffffffffffffffffffffffffffffffffffffff167f8c5be1e5ebec7d5bd14f71427d1e84f3dd0314c0f7b2291e5b200ac8c7c3b925856040518082815260200191505060405180910390a38373ffffffffffffffffffffffffffffffffffffffff16638f4ffcb1338530866040518563ffffffff1660e01b8152600401808573ffffffffffffffffffffffffffffffffffffffff1673ffffffffffffffffffffffffffffffffffffffff1681526020018481526020018373ffffffffffffffffffffffffffffffffffffffff1673ffffffffffffffffffffffffffffffffffffffff16815260200180602001828103825283818151815260200191508051906020019080838360005b838110156115c55780820151818401526020810190506115aa565b50505050905090810190601f1680156115f25780820380516001836020036101000a031916815260200191505b5095505050505050600060405180830381600087803b15801561161457600080fd5b505af1158015611628573d6000803e3d6000fd5b50505050600190509392505050565b60065481565b600160009054906101000a900473ffffffffffffffffffffffffffffffffffffffff1681565b60008060009054906101000a900473ffffffffffffffffffffffffffffffffffffffff1673ffffffffffffffffffffffffffffffffffffffff163373ffffffffffffffffffffffffffffffffffffffff16146116be57600080fd5b8273ffffffffffffffffffffffffffffffffffffffff1663a9059cbb6000809054906101000a900473ffffffffffffffffffffffffffffffffffffffff16846040518363ffffffff1660e01b8152600401808373ffffffffffffffffffffffffffffffffffffffff1673ffffffffffffffffffffffffffffffffffffffff16815260200182815260200192505050602060405180830381600087803b15801561176657600080fd5b505af115801561177a573d6000803e3d6000fd5b505050506040513d602081101561179057600080fd5b8101908080519060200190929190505050905092915050565b60095481565b6000601660008473ffffffffffffffffffffffffffffffffffffffff1673ffffffffffffffffffffffffffffffffffffffff16815260200190815260200160002060008373ffffffffffffffffffffffffffffffffffffffff1673ffffffffffffffffffffffffffffffffffffffff16815260200190815260200160002054905092915050565b6000809054906101000a900473ffffffffffffffffffffffffffffffffffffffff1673ffffffffffffffffffffffffffffffffffffffff163373ffffffffffffffffffffffffffffffffffffffff161461188f57600080fd5b80600160006101000a81548173ffffffffffffffffffffffffffffffffffffffff021916908373ffffffffffffffffffffffffffffffffffffffff16021790555050565b6000828211156118e257600080fd5b818303905092915050565b600081830190508281101561190157600080fd5b9291505056fea265627a7a72315820922df73b558dd4b489d081d2f8073a2a4220842f65f5ef6e29e31444e39db2bc64736f6c63430005100032",
  "source": "\n\npragma solidity ^0.5.16;\n\n\n// ----------------------------------------------------------------------------\n\n// 'Test Token' contract\n\n// Mineable ERC20 Token using Proof Of Work\n\n//\n\n// Symbol      : TEST\n\n// Name        : Test Token\n\n// Total supply: 21,000,000.00\n\n// Decimals    : 8\n\n//\n\n\n// ----------------------------------------------------------------------------\n\n\n\n// ----------------------------------------------------------------------------\n\n// Safe maths\n\n// ----------------------------------------------------------------------------\n\nlibrary SafeMath {\n\n    function add(uint a, uint b) internal pure returns (uint c) {\n\n        c = a + b;\n\n        require(c >= a);\n\n    }\n\n    function sub(uint a, uint b) internal pure returns (uint c) {\n\n        require(b <= a);\n\n        c = a - b;\n\n    }\n\n    function mul(uint a, uint b) internal pure returns (uint c) {\n\n        c = a * b;\n\n        require(a == 0 || c / a == b);\n\n    }\n\n    function div(uint a, uint b) internal pure returns (uint c) {\n\n        require(b > 0);\n\n        c = a / b;\n\n    }\n\n}\n\n\n\nlibrary ExtendedMath {\n\n\n    //return the smaller of the two inputs (a or b)\n    function limitLessThan(uint a, uint b) internal pure returns (uint c) {\n\n        if(a > b) return b;\n\n        return a;\n\n    }\n}\n\n// ----------------------------------------------------------------------------\n\n// ERC Token Standard #20 Interface\n\n// https://github.com/ethereum/EIPs/blob/master/EIPS/eip-20-token-standard.md\n\n// ----------------------------------------------------------------------------\n\ncontract ERC20Interface {\n\n    function totalSupply() public view returns (uint);\n\n    function balanceOf(address tokenOwner) public view returns (uint balance);\n\n    function allowance(address tokenOwner, address spender) public view returns (uint remaining);\n\n    function transfer(address to, uint tokens) public returns (bool success);\n\n    function approve(address spender, uint tokens) public returns (bool success);\n\n    function transferFrom(address from, address to, uint tokens) public returns (bool success);\n\n\n    event Transfer(address indexed from, address indexed to, uint tokens);\n\n    event Approval(address indexed tokenOwner, address indexed spender, uint tokens);\n\n}\n\n\n\n// ----------------------------------------------------------------------------\n\n// Contract function to receive approval and execute function in one call\n\n//\n\n// Borrowed from MiniMeToken\n\n// ----------------------------------------------------------------------------\n\ncontract ApproveAndCallFallBack {\n\n    function receiveApproval(address from, uint256 tokens, address token, bytes memory data) public;\n\n}\n\n\n\n// ----------------------------------------------------------------------------\n\n// Owned contract\n\n// ----------------------------------------------------------------------------\n\ncontract Owned {\n\n    address public owner;\n\n    address public newOwner;\n\n\n    event OwnershipTransferred(address indexed _from, address indexed _to);\n\n\n   constructor() public {\n\n        owner = msg.sender;\n\n    }\n\n\n    modifier onlyOwner {\n\n        require(msg.sender == owner);\n\n        _;\n\n    }\n\n\n    function transferOwnership(address _newOwner) public onlyOwner {\n\n        newOwner = _newOwner;\n\n    }\n\n    function acceptOwnership() public {\n\n        require(msg.sender == newOwner);\n\n        emit OwnershipTransferred(owner, newOwner);\n\n        owner = newOwner;\n\n        newOwner = address(0);\n\n    }\n\n}\n\n\n\n// ----------------------------------------------------------------------------\n\n// ERC20 Token, with the addition of symbol, name and decimals and an\n\n// initial fixed supply\n\n// ----------------------------------------------------------------------------\n\ncontract TestToken is ERC20Interface, Owned {\n\n    using SafeMath for uint;\n    using ExtendedMath for uint;\n\n\n    string public symbol;\n\n    string public  name;\n\n    uint8 public decimals;\n\n    uint public _totalSupply;\n\n\n\n     uint public latestDifficultyPeriodStarted;\n\n\n\n    uint public epochCount;//number of 'blocks' mined\n\n\n    uint public _BLOCKS_PER_READJUSTMENT = 1024;\n\n\n    //a little number\n    uint public  _MINIMUM_TARGET = 2**16;\n\n\n      //a big number is easier ; just find a solution that is smaller\n    //uint public  _MAXIMUM_TARGET = 2**224;  bitcoin uses 224\n    uint public  _MAXIMUM_TARGET = 2**234;\n\n\n    uint public miningTarget;\n\n    bytes32 public challengeNumber;   //generate a new one when a new reward is minted\n\n\n\n    uint public rewardEra;\n    uint public maxSupplyForEra;\n\n\n    address public lastRewardTo;\n    uint public lastRewardAmount;\n    uint public lastRewardEthBlockNumber;\n\n    bool locked = false;\n\n    mapping(bytes32 => bytes32) solutionForChallenge;\n\n    uint public tokensMinted;\n\n    mapping(address => uint) balances;\n\n\n    mapping(address => mapping(address => uint)) allowed;\n\n\n    event Mint(address indexed from, uint reward_amount, uint epochCount, bytes32 newChallengeNumber);\n\n    // ------------------------------------------------------------------------\n\n    // Constructor\n\n    // ------------------------------------------------------------------------\n\n    constructor() public  {\n\n\n\n        symbol = \"TEST\";\n\n        name = \"Test Token\";\n\n        decimals = 8;\n\n        _totalSupply = 21000000 * 10**uint(decimals);\n\n        balances[msg.sender] = _totalSupply;\n\n        emit Transfer(address(msg.sender), owner, _totalSupply);\n\n\n    }\n\n\n\n\n\n\n\n    // ------------------------------------------------------------------------\n\n    // Total supply\n\n    // ------------------------------------------------------------------------\n\n    function totalSupply() public view returns (uint) {\n\n        return _totalSupply  - balances[address(0)];\n\n    }\n\n\n\n    // ------------------------------------------------------------------------\n\n    // Get the token balance for account `tokenOwner`\n\n    // ------------------------------------------------------------------------\n\n    function balanceOf(address tokenOwner) public view returns (uint balance) {\n\n        return balances[tokenOwner];\n\n    }\n\n\n\n    // ------------------------------------------------------------------------\n\n    // Transfer the balance from token owner's account to `to` account\n\n    // - Owner's account must have sufficient balance to transfer\n\n    // - 0 value transfers are allowed\n\n    // ------------------------------------------------------------------------\n\n    function transfer(address to, uint tokens) public returns (bool success) {\n\n        balances[msg.sender] = balances[msg.sender].sub(tokens);\n\n        balances[to] = balances[to].add(tokens);\n\n        emit Transfer(msg.sender, to, tokens);\n\n        return true;\n\n    }\n\n\n\n    // ------------------------------------------------------------------------\n\n    // Token owner can approve for `spender` to transferFrom(...) `tokens`\n\n    // from the token owner's account\n\n    //\n\n    // https://github.com/ethereum/EIPs/blob/master/EIPS/eip-20-token-standard.md\n\n    // recommends that there are no checks for the approval double-spend attack\n\n    // as this should be implemented in user interfaces\n\n    // ------------------------------------------------------------------------\n\n    function approve(address spender, uint tokens) public returns (bool success) {\n\n        allowed[msg.sender][spender] = tokens;\n\n        emit Approval(msg.sender, spender, tokens);\n\n        return true;\n\n    }\n\n\n\n    // ------------------------------------------------------------------------\n\n    // Transfer `tokens` from the `from` account to the `to` account\n\n    //\n\n    // The calling account must already have sufficient tokens approve(...)-d\n\n    // for spending from the `from` account and\n\n    // - From account must have sufficient balance to transfer\n\n    // - Spender must have sufficient allowance to transfer\n\n    // - 0 value transfers are allowed\n\n    // ------------------------------------------------------------------------\n\n    function transferFrom(address from, address to, uint tokens) public returns (bool success) {\n\n        balances[from] = balances[from].sub(tokens);\n\n        allowed[from][msg.sender] = allowed[from][msg.sender].sub(tokens);\n\n        balances[to] = balances[to].add(tokens);\n\n        emit Transfer(from, to, tokens);\n\n        return true;\n\n    }\n\n\n\n    // ------------------------------------------------------------------------\n\n    // Returns the amount of tokens approved by the owner that can be\n\n    // transferred to the spender's account\n\n    // ------------------------------------------------------------------------\n\n    function allowance(address tokenOwner, address spender) public view returns (uint remaining) {\n\n        return allowed[tokenOwner][spender];\n\n    }\n\n\n\n    // ------------------------------------------------------------------------\n\n    // Token owner can approve for `spender` to transferFrom(...) `tokens`\n\n    // from the token owner's account. The `spender` contract function\n\n    // `receiveApproval(...)` is then executed\n\n    // ------------------------------------------------------------------------\n\n    function approveAndCall(address spender, uint tokens, bytes memory data) public returns (bool success) {\n\n        allowed[msg.sender][spender] = tokens;\n\n        emit Approval(msg.sender, spender, tokens);\n\n        ApproveAndCallFallBack(spender).receiveApproval(msg.sender, tokens, address(this), data);\n\n        return true;\n\n    }\n\n\n\n    // ------------------------------------------------------------------------\n\n    // Don't accept ETH\n\n    // ------------------------------------------------------------------------\n\n    function () external payable {\n\n        revert();\n\n    }\n\n\n\n    // ------------------------------------------------------------------------\n\n    // Owner can transfer out any accidentally sent ERC20 tokens\n\n    // ------------------------------------------------------------------------\n\n    function transferAnyERC20Token(address tokenAddress, uint tokens) public onlyOwner returns (bool success) {\n\n        return ERC20Interface(tokenAddress).transfer(owner, tokens);\n\n    }\n\n}\n",
  "sourcePath": "/home/andy/dev/lava-wallet/contracts/TestToken.sol",
  "compiler": {
    "name": "solc",
    "version": "0.5.16+commit.9c3226ce.Emscripten.clang"
  },
  "schemaVersion": "3.0.21",
  "updatedAt": "2020-01-19T00:51:59.020Z",
  "devdoc": {
    "methods": {}
  },
  "userdoc": {
    "methods": {}
  }
}